:020000040000FA
:0400000007EF00F016
:100008001A82E9ED00F0C7EF01F05DEF00F0000E95
:10001800026E3F0E016E93EF00F093EF00F0000EBA
:10002800026E060E016E93EF00F093EF00F0000EE3
:10003800026E5B0E016E93EF00F093EF00F0000E7E
:10004800026E4F0E016E93EF00F093EF00F0000E7A
:10005800026E660E016E93EF00F093EF00F0000E53
:10006800026E6D0E016E93EF00F093EF00F0000E3C
:10007800026E7D0E016E93EF00F093EF00F0000E1C
:10008800026E070E016E93EF00F093EF00F0000E82
:10009800026E7F0E016E93EF00F093EF00F0000EFA
:1000A800026E6F0E016E93EF00F093EF00F093EF86
:1000B80000F001C003F002C004F00450000AD8B4F4
:1000C80068EF00F093EF00F00350000AD8B40BEF8C
:1000D80000F0010AD8B413EF00F0030AD8B41BEFFC
:1000E80000F0010AD8B423EF00F0070AD8B42BEFC8
:1000F80000F0010AD8B433EF00F0030AD8B43BEF9C
:1001080000F0010AD8B443EF00F00F0AD8B44BEF5F
:1001180000F0010AD8B453EF00F093EF00F012009A
:10012800124A132A0A0E12181310D8A49EEF00F0D0
:10013800A0EF00F0E8EF00F0000E136E000E126E54
:10014800144A152A0A0E14181510D8A4AEEF00F098
:10015800B0EF00F0E8EF00F0000E156E000E146E20
:10016800164A172A0A0E16181710D8A4BEEF00F060
:10017800C0EF00F0E8EF00F0000E176E000E166EEC
:10018800184A192A0A0E18181910D8A4CEEF00F028
:10019800D0EF00F0E8EF00F0000E136E000E126EC4
:1001A80012C014F013C015F014C016F015C017F0E3
:1001B80016C018F017C019F0E8EF00F0E8EF00F0EB
:1001C800E8EF00F0E8EF00F012000600F0A0EFEF13
:1001D80000F0F1EF00F006EF01F0F0900E500F1074
:1001E800D8A4F9EF00F0FBEF00F0FFEF00F00E4AA3
:1001F8000F2A35EF01F00E06D8A00F0635EF01F0F3
:1002080035EF01F0F2A40BEF01F00DEF01F035EF3F
:1002180001F00E500F10D8A414EF01F016EF01F002
:100228002EEF01F0640E10181110D8A41EEF01F083
:1002380020EF01F028EF01F094EC00F0000E116EB1
:10024800000E106E2EEF01F0104A112A2EEF01F069
:100258002EEF01F0050ED66EF29435EF01F035EF72
:1002680001F01A92110005C001F006C002F009EC75
:1002780000F00150836E8084060E0D6E300EE82E5D
:10028800FED70D2EFCD700D0809407C001F008C01F
:1002980002F009EC00F00150836E8086060E0D6EA8
:1002A800300EE82EFED70D2EFCD700D0809609C060
:1002B80001F00AC002F009EC00F00150836E80885A
:1002C800060E0D6E300EE82EFED70D2EFCD700D090
:1002D80080980BC001F00CC002F009EC00F001504E
:1002E800836E808A060E0D6E300EE82EFED70D2E18
:1002F800FCD700D0809A1200D09EF28EF28CF08645
:10030800F090F18AF28AF294C70ED56E050ED66E79
:100318000F0EC16E000E806E000E836E000E926E80
:10032800000E956E000E196E000E186E000E176EF8
:10033800000E166E000E156E000E146E000E136E73
:10034800000E126E000E116E000E106E120080EC80
:1003580001F0AFEF01F018C005F019C006F016C0A3
:1003680007F017C008F014C009F015C00AF012C051
:100378000BF013C00CF037EC01F0AFEF01F0AFEF6A
:1003880001F007EF00F000EE0EF00C0EEE6AE80642
:10039800FDE11A901A92000EF86E0001ABEF01F021
:020000040020DA
:08000000FFFFFFFFFFFFFFFF00
:020000040030CA
:0E000000FF021F1EFF8385FF0FC00FE00F40A1
:00000001FF
